:020000040000fa
:080000000002040000000000f2
:020000040000fa
:100400002fa92000807f2400000188000000000048
:10041000050007000c000700260a0200000000008b
:100420000040da000000fe004440a900c0002000a7
:100430000000e0000300320000002000a00188005e
:100440004440a800000006002055210001002000c3
:100450001600370062004000e080480091018800eb
:100460009001ba0062004000e080480091018800dd
:100470009002ba0062004000e08048000002eb00f9
:100480006028e10005003a008301e900070033001d
:10049000038009000059eb00040037006128e100e7
:1004a000010032000082eb00050007009101880086
:1004b0001001ba000200e000e6ff3a00000005006b
:1004c000910188008002780062004000e0804800ce
:1004d0003559ba008301e900080032002559ba00f5
:1004e0008301e900050032000400e000f4ff32005f
:1004f00015d9ba008301e900f1ff3a0000000600b7
:10050000889fbe008a9fbe00010578000100e000c0
:100510000400350008003c000000e000200032002c
:100520000500370060001000e080180002003b006a
:1005300001f02c001a0037000004be006011b80062
:100540006b0920000982cf00020039000882cf0029
:100550000441b000694252000e00320008003b0026
:1005600082817100610164008904d1000884d30094
:100570008b05e8000442e800f9ff3a000500370067
:100580000804440089844c008b05e9000442e9001a
:10059000fbff3a00bc0007000af0a70001f0a00032
:1005a0004f05be004f04be0000000600889fbe003d
:1005b0008a9fbe008c1f7800d9000700e00033003e
:1005c00003866c006450e100240032006420e100e6
:1005d000270032006150e100220032006120e1007a
:1005e000210032008b854200eb07b1000134b800d6
:1005f000003ab8000804420089844a00013ab80071
:100600000030b8008880400009014a00040033002f
:100610000000400081804800020149008b05e9008c
:10062000c909dd00830170000100320013002000c1
:10063000c814de004814dd004709de001200b200d5
:10064000c808de00088470008f00070001f0a100d8
:100650000cf0a70001f0a000c20037006120e1000b
:10066000c40032000801be000200be00f7ff3700e0
:100670006150e100fcff3a00be0037000001be00ff
:10068000bf0007000470a70003f0a1006509b100d6
:10069000160032000d0035006828e1000600350024
:1006a000f0ff2f00f1ff27000300e00013003b00e4
:1006b0000100280000000500000040008180480083
:1006c0008502e900fcff3a0008003700f88f42007d
:1006d00002003c008000eb00000005008100d1001a
:1006e0000080d3008502e800fcff3a000300e00030
:1006f00002003b0060001000e080180000000600cf
:1007000003f0a200889fbe008a9fbe008c1f780065
:10071000830007008a0033006450e1004f0032007c
:100720006420e1005200320003826c0007003b00ad
:100730000905d0000306d000820f54000c065d00ae
:1007400002003900020032008901780003067800b7
:100750008582550004003d000003fd008103fd007b
:100760008502ea008b854200840f720002003b0084
:1007700060001000e08018006011b8000005eb0078
:100780007a28e1000a00390006007800c75ddd0024
:10079000f707b200878075002d0037008281710055
:1007a0000a017800610560008180d1000080d300db
:1007b0008502e900f9ff3b000604400087844800f9
:1007c00002003b0060041400e0841c000988a300c0
:1007d000070032008a81710082817100610164002a
:1007e0008904d1000884d3008b05e8001700370086
:1007f0000978a30013003a000b00e0001300340056
:100800008b05e9000804440089844c000a44740004
:100810000978a3000d003a000b00e0000700340047
:100820008b05e9000804440089844c0001003a006b
:100830000b0020000978a300f7ff32000001eb0055
:1008400002003700828171000a0178000e00070063
:100850000cf0a70001f0a000420037006420e10086
:1008600002003a00838f6c00420033000801be0092
:100870000200be003b003700f4ff2f005500370098
:1008800014002000530037008100200061805500d3
:100890000b003d000b00200061fe2f000100e10075
:1008a0001d00340082817100610164008904d1005f
:1008b0000884d3000000e800faff3a00710020002d
:1008c0006100640003007000020060000900320053
:1008d00061044400e0844c000988a5000500320052
:1008e0008b05e8006808e10002003a008904d100a5
:1008f0000884d300f20f20000258e10005003d00fb
:10090000c75ddd00f907b200898075000800780036
:10091000000006000bf827008b007800000005009f
:100920000004be00160007000003be000405be0060
:100930000200be0012000700844f75000000060090
:100940000200be006450e100050036006420e100b2
:10095000020036000968a30001003a000800be004a
:100960000160a0004f0678004f05be004f04be0096
:1009700000000600f0ff2f00f1ff2700f9ff37000d
:10098000c70ade00f107b200f50fb200080032001e
:10099000e1cf4200020032000170a00024000500f7
:1009a000810f7000010032000408050044000500ba
:1009b000810f700002003a00140005008502e90072
:1009c0000000400081c04800fcff3b000170a00017
:1009d00024000500889fbe008a9fbe00841f780007
:1009e000cfff07004f00780011003300f0ff2f0009
:1009f000838f6c0006003b00040565000a00a70019
:100a00000800370009f0a600100020000800370099
:100a1000820f5400838f5c00030039001000200017
:100a200001003e000000200009f0a7000000ea00dd
:100a30004f05be004f04be000000e00000000600ad
:100a40000600fa00000f78000000eb001007980085
:100a50001e009000f30f50000e003e000000eb005f
:100a6000200798002e0090009e0f500005003100d6
:100a7000000000002e0090000000e8002007980011
:100a8000f8ff37001e0090000000e80010079800f3
:100a9000efff37000080fa00000006000600fa00b1
:100aa000000f7800110798000000eb002007980065
:100ab000ae0090001e009000808f50000f003d009f
:100ac0002e0090001e0040001080fb00a011880046
:100ad0009011800001102000010060000000e00083
:100ae00002003a0000000000f9ff37002e009000dd
:100af0000000e80020079800edff37000080fa00b2
:100b0000000006000600fa00000f780011079800a8
:100b10000000eb0020079800ae0090001e0090003f
:100b2000808f50000f003d002e0090001e004000fe
:100b30001080fb002011880010118000011020009f
:100b4000010060000000e00002003a000000000028
:100b5000f9ff37002e0090000000e8002007980001
:100b6000edff37000080fa00000006003600f800b4
:100b7000809fbe00829fbe00849fbe00869fbe00f5
:100b80000000fa0089e0a900305480000000e8006d
:100b900030548800705480000000e80070548800d1
:100ba00071548000703e2000808f50001d00360080
:100bb0000000eb0070548800d7c2bf000080fb002b
:100bc0004300de000080fb00610060000080ea005e
:100bd000614060004301dd00712d200091407800ec
:100be00070cfb30000c0600002407000d7e2b700d1
:100bf000d7c2bf000080fb004300de000080fb0086
:100c000061006000614060004501dd00112d2000a1
:100c100091407800f0cdb30000c060000240700049
:100c2000d1e2b70080c6b300804ae30002003a0078
:100c300010c0b3007ceab70030548000e40f5000cd
:100c40000a00340080c6b300804ae30002003a0084
:100c500010c0b3007deab7000000eb0030548800fc
:100c6000405480000000e800405488004054800058
:100c7000e10f50000a003400c0c6b300804ae30010
:100c800002003a0010c0b3007ceab7000000eb009d
:100c900040548800505480000000e8005054880000
:100ca00050548000e40f50000a003400c0c6b30066
:100cb000804ae30002003a0010c0b3007deab700aa
:100cc0000000eb0050548800205480000000e80031
:100cd0002054880021548000f04f2000808f500065
:100ce00005003400405380000000e80040538800b5
:100cf0000000eb002054880040538000ee0f5000ad
:100d00000b003400e2c2a900803821004cff07002c
:100d1000e2c2a8008038210049ff07000000eb0074
:100d20004053880051002000c05429005bff070099
:100d30000080fa004f03be004f02be004f01be000c
:100d40004f00be003600f90000400600809fbe0044
:100d50002200fa008560a9000000eb00100f980047
:100d60000040eb004057980030118000004f7800a1
:100d70004e5090000080fb008e00400050c4b30035
:100d8000914f1000210032004e5090000040e800ca
:100d90004057980010118000610060000000e000e2
:100da00008003a009e089000f0342c00808f50001c
:100db00004003e001e0890000000e800100f98009c
:100dc000f4ff37009e089000f0342c00808f500014
:100dd000060036004e5090000080fb008e00400060
:100de00050c4b30080487800050037004e50900092
:100df0000080fb008e0040003011800080487800a9
:100e00000000eb00100f9800d9ff37004e50900003
:100e1000f04f500013003a002e409000e14f500078
:100e200010003a003e409000e24f50000d003a00a2
:100e300030c5b3009e4f10000a003a00d1c2a8008e
:100e4000c0c6b30080eab70020c6b3006aeab700a4
:100e500010c0b3007feab7000000eb0040538800e9
:100e6000610037004e509000f04f500013003a00e0
:100e70002e409000e34f500010003a003e4090009a
:100e8000e44f50000d003a0030c5b3009e4f1000f3
:100e90000a003a00d1c2a80080c6b30080eab700b9
:100ea00020c6b3006aeab70010c0b3007feab700fb
:100eb0000000eb00405388004b0037004e5090007c
:100ec000f04f500011003a002e409000f14f5000ba
:100ed0000e003a003e409000f24f50000b003a00e6
:100ee00030c5b3009e4f100008003a00d1c2a900df
:100ef000c0c6b30080eab70020c6b3006aeab700f4
:100f00000040eb007feab700370037004e509000fa
:100f1000f04f500011003a002e409000f34f500067
:100f20000e003a003e409000f44f50000b003a0093
:100f300030c5b3009e4f100008003a00d1c2a9008e
:100f400080c6b30080eab70020c6b3006aeab700e3
:100f50000040eb007feab700230037004e509000be
:100f6000f04f50000c003a002e409000e54f50002a
:100f700009003a003e409000e64f500006003a005b
:100f800030c5b3009e4f100003003a0010c0b300fc
:100f900081eab700140037004e509000f04f500027
:100fa00011003a002e409000e74f50000e003a002a
:100fb0003e409000e84f50000b003a0030c5b300af
:100fc0009e4f100008003a0097c0a90097e0a900c2
:100fd0009560a9009580a90099e0a9009860a900f2
:100fe0000c24a900ffff37000080fa004f00be006c
:100ff00000400600809fbe004000fa000000eb00a9
:10100000000f78000040eb002047980087c0a9003f
:10101000b011800030479800900ae2000a003a00c0
:10102000be40900030c5b30080cf500006003a00ab
:10103000100020008054880064004700be409000eb
:1010400001487800fe003700900ae20007003a00ed
:10105000be40900030c4b30080cf500003003a007f
:101060003000200080548800f50037008054800054
:10107000e10f500089003a00e40047002e40900044
:101080000080fb008100400050c4b300914f10006d
:101090002a0032002e4090000004e00008003a00d0
:1010a00010c0b30020479800e40047002e40900095
:1010b0000080fb0001004000be4090000148780025
:1010c0002e4090000040e8002047980090118000da
:1010d000610060000000e00005003a00f0342c00e0
:1010e0009e0f100002003e001e0fe800f7ff3700c1
:1010f000f0342c009e0f100007003600e40047007b
:101100002e4090000080fb008100400050c4b300de
:101110008048780006003700e40047002e40900029
:101120000080fb0081004000b01180008048780002
:101130000000eb00000f7800cfff37000000eb004d
:10114000805488002e409000f04f50000f003a006d
:101150006400470020409000e14f50000b003a002f
:101160006400470030409000e24f500007003a0012
:10117000c0c6b30080eab70010c0b3007eeab70073
:1011800020c6b3006aeab700ad0037002e409000d9
:10119000f04f50000f003a006400470020409000dc
:1011a000e34f50000b003a006400470030409000cd
:1011b000e44f500007003a0080c6b30080eab70051
:1011c00010c0b3007eeab70020c6b3006aeab700d9
:1011d0009b0037002e409000f04f50000f003a0067
:1011e0006400470020409000f14f50000b003a008f
:1011f0006400470030409000f24f500007003a0072
:10120000c0c6b30080eab7000040eb007eeab7003a
:1012100020c6b3006aeab700890037002e4090006c
:10122000f04f50000f003a0064004700204090004b
:10123000f34f50000b003a0064004700304090002c
:10124000f44f500007003a0080c6b30080eab700b0
:101250000040eb007eeab70020c6b3006aeab700a0
:10126000770037002e409000f04f500074003a0095
:101270006400470020409000e54f500070003a00a5
:101280006400470030409000e64f50006c003a0088
:1012900010c0b30081eab70069003700900ae2008d
:1012a0000a003a00be40900050c3b30080cf500007
:1012b00006003a00200020008054880064004700a7
:1012c000be409000014878005d00370080548000e7
:1012d000e20f500049003a00e40047002e40900021
:1012e0000080fb008100400050c3b300914f10000c
:1012f00003003a002e4090000004e0002a003a006b
:101300002e4090000004e00008003a0010c0b30036
:1013100020479800e40047002e4090000080fb002a
:1013200001004000be409000014878002e4090002f
:101330000040e800204798009011800061006000a4
:101340000000e00005003a00f0342c009e0f100071
:1013500002003e001e0fe800f7ff3700f0342c00bb
:101360009e0f100007003600e40047002e4090005a
:101370000080fb008100400050c3b300804878002b
:1013800006003700e40047002e4090000080fb007c
:1013900081004000b0118000804878000000eb0020
:1013a000000f7800ccff37000000eb00805488006d
:1013b000ae40900010c3b30080cf500020003a0030
:1013c00064004700f040900010c3b30080cf50008d
:1013d0001b003a0064004700a048900020c3b300ff
:1013e00080cf500016003a0010c0b3007eeab7006c
:1013f00010c6b3006aeab7001100370080548000bd
:10140000e30f50000e003a000000eb00805488000b
:10141000be40900010c5b30080cf500008003a00d5
:1014200097c0a90097e0a9009560a9009580a90040
:1014300099e0a9009860a9000c24a900ffff3700db
:101440000080fa004f00be00004006002000fa00b5
:10145000889fbe00803e2000200798000000eb001f
:10146000700798000060fe0000202200103a8800fb
:10147000cda2a900cdc2a900d362a900d202a900c1
:10148000dec2a90074030700d1a2a800d602a900f9
:10149000d1c2a900d762a800e2c2a8000a020700d0
:1014a0001e02070047020700800207000060fe00de
:1014b0000000eb00a30207001000200060fd070001
:1014c0000000eb00e5020700100020005cfd0700b3
:1014d0000060fe00101180006e0060000000e0005f
:1014e0000300320030118000605f98002222a900c2
:1014f000901180006e0060000000e00003003200e8
:10150000b0118000605f98003222a900c0a72000bf
:1015100011c0b30090cf100047013a000060fe00f8
:101520000000eb00500798005e009000e20f5000b2
:1015300051003c005e0090000000e80081020700be
:10154000de009000600020000008b800a3a3200087
:1015500003014000de009000600020000008b80099
:1015600083a320000300400010097800de009000f3
:10157000600020000008b80083a3200003014000a1
:10158000de009000600020000008b80063a3200087
:101590000300400010097800de0090006000200089
:1015a0000008b80063a32000030140005e00900023
:1015b0000000d000619f2000010040001080fb006f
:1015c000c800dd005e0090000000d000739f200086
:1015d000030040001080fb0000894000de00900006
:1015e000600020000008b800a3a020000301400014
:1015f000de009000600020000008b80083a02000fa
:101600000300400010097800de0090006000200018
:101610000008b80083a0200003014000de00900015
:10162000600020000008b80063a020000300400014
:1016300010097800de009000600020000008b8006b
:1016400063a0200003014000de0090006000200045
:101650000008b80063a320000300400010097800d0
:1016600010002000f6fc07005e0090000000e8007b
:1016700050079800acff37000000eb003102070074
:10168000de009000600020000008b800a3a3200046
:1016900003014000de009000600020000008b80058
:1016a00083a320000300400010097800de009000b2
:1016b000600020000008b80083a320000301400060
:1016c000de009000600020000008b80063a3200046
:1016d0000300400010097800de0090006000200048
:1016e0000008b80063a32000030140005e009000e2
:1016f0000000d000619f2000010040001080fb002e
:10170000c800dd005e0090000000d000739f200044
:10171000030040001080fb0000894000de009000c4
:10172000600020000008b800a3a0200003014000d2
:10173000de009000600020000008b80083a02000b8
:101740000300400010097800de00900060002000d7
:101750000008b80083a0200003014000de009000d4
:10176000600020000008b80063a0200003004000d3
:1017700010097800de009000600020000008b8002a
:1017800063a0200003014000de0090006000200004
:101790000008b80063a3200003004000100978008f
:1017a00010002000a6fc0700400020005007980011
:1017b0005e009000e60f500051003c005e0090007b
:1017c0006300500025020700de009000600020004a
:1017d0000008b800a3a3200003014000de00900031
:1017e000600020000008b80083a320000300400030
:1017f00010097800de009000600020000008b800aa
:1018000083a3200003014000de0090006000200060
:101810000008b80063a3200003004000100978000e
:10182000de009000600020000008b80063a32000e4
:10183000030140005e0090000000d000619f200086
:10184000010040001080fb00c800dd005e00900039
:101850000000d000739f2000030040001080fb00b8
:1018600000894000de009000600020000008b80001
:10187000a3a0200003014000de00900060002000d3
:101880000008b80083a02000030040001009780081
:10189000de009000600020000008b80083a0200057
:1018a00003014000de009000600020000008b80046
:1018b00063a020000300400010097800de009000c3
:1018c000600020000008b80063a020000301400071
:1018d000de009000600020000008b80063a3200034
:1018e00003004000100978001000200054fc07009d
:1018f0005e0090000000e80050079800acff370041
:101900000000eb00d5010700de0090006000200021
:101910000008b800a3a3200003014000de009000ef
:10192000600020000008b80083a3200003004000ee
:1019300010097800de009000600020000008b80068
:1019400083a3200003014000de009000600020001f
:101950000008b80063a320000300400010097800cd
:10196000de009000600020000008b80063a32000a3
:10197000030140005e0090000000d000619f200045
:10198000010040001080fb00c800dd005e009000f8
:101990000000d000739f2000030040001080fb0077
:1019a00000894000de009000600020000008b800c0
:1019b000a3a0200003014000de0090006000200092
:1019c0000008b80083a02000030040001009780040
:1019d000de009000600020000008b80083a0200016
:1019e00003014000de009000600020000008b80005
:1019f00063a020000300400010097800de00900082
:101a0000600020000008b80063a02000030140002f
:101a1000de009000600020000008b80063a32000f2
:101a200003004000100978001000200004fc0700ab
:101a30000040eb007ceab70010a8200011c0b30002
:101a400090cf10001d003a000060fe000000eb0087
:101a5000100798001e009000e70f500015003c0092
:101a60001e0090000000d000c2a62000020440002a
:101a70009e009000600020000008b80063a02000d5
:101a80000300400010007800cf80de009cfa0700c1
:101a9000f2a9240013e72300c4fa0700f7fa0700ad
:101aa000000c78001e0090000000e800100798006d
:101ab000e8ff37000040eb0081eab700d0a7200024
:101ac00011c0b30090cf100081fe3a0030c5b300c2
:101ad00000e8b70066cabf0001e8b7002000200098
:101ae000700798000000eb00500798005e0090001f
:101af000e70f50002e003c00de0090006000200048
:101b00000008b80062a02000020040001000780029
:101b1000cf80de007afa0700f2a9240013e7230041
:101b2000a2fa07000004be005e0090000000d00092
:101b3000c3a620000300400010007800cf80de0024
:101b40006ffa07000001be000800be00ecfa0700b3
:101b5000cafa0700000f98007e0090000280200063
:101b6000820040000e0890004880de008048780027
:101b70007e0090000000e800700798007e00900052
:101b8000038020000301400080c0eb000e50900055
:101b9000014960007e0090000000e8007007980096
:101ba0005e0090000000e80050079800cfff37006b
:101bb0007e00900002802000820040004e089000cd
:101bc0004800de00804878007e0090000000e800b9
:101bd000700798007e009000038020000300400002
:101be0008e589000014878007e0090000000e800c8
:101bf000700798007e009000028020008200400064
:101c00005e0890004800de00804878007e0090006a
:101c10000000e800700798007e009000038020001c
:101c200003004000ae589000014878007e0090000c
:101c30000000e800700798007e00900002802000fd
:101c40008200400050c4b300804878007e009000bd
:101c50000000e80070079800e0a7200013c0b30060
:101c600090cf110003003a00fe0090000080200099
:101c70008afb0700f0a7200011c0b30090cf10002e
:101c80000e003a00d6c2bf000080fb006100600079
:101c90000080ea0061416000612d200091407800e1
:101ca000e0cfb30000c0600002407000d6e2b70091
:101cb000fe0090000080200092fb07000040eb0037
:101cc0007deab70002fe37000000fa002de1a9000e
:101cd000c112200091407800f0ccb30000c0600039
:101ce0000044a0002ce1b7002c21a900409c20005a
:101cf000400988000000eb0010098800d105800031
:101d00000000270000807000d005880089e0a9004d
:101d100099e0a8000080fa00000006000000fa0028
:101d20000000eb00100988002de1a8000080fa00f7
:101d3000000006000000fa002de1a9000080fa0072
:101d4000000006000000fa0011e1a9000000eb000d
:101d500030088800e0ff2f00600888000111200093
:101d600091407800f0ccb30000c060000044a000b7
:101d700010e1b7001021a90010c1a9000080fa00ed
:101d8000000006000000fa000000eb0030088800a8
:101d90000111200091407800f0ccb30000c0600039
:101da0000044a00010e1b70011e1a8000080fa0093
:101db000000006000000fa0011e1a9000080fa000e
:101dc000000006000000fa00de82a800dea2a900e2
:101dd00087c0a900a0002000c01188003002a9001f
:101de000012320009140780090cfb30000c0600034
:101df00030e2b70030a2a90033a2a90033e2a90063
:101e000032c2bf00f043b20032e2b70031e2a800b4
:101e10003342a80097c0a80097e0a90087c0a90096
:101e2000de42a800de62a9008560a900a0002000b3
:101e3000401188002002a900012220009140780072
:101e400090cfb30000c0600020e2b70020a2a9003c
:101e500023a2a90023e2a90022c2bf00f043b200de
:101e600022e2b70021e2a8002342a8009560a80062
:101e70009580a9008560a9000080fa000000060096
:101e80000200fa000000eb00000f78008001200043
:101e90009e0f100003003e00000000001e0fe8002f
:101ea000faff37000080fa00000006000000fa0088
:101eb000e4c2a900e4e2a800e502a900cc22a9003e
:101ec000cc42a900c6a2a800c662a900c642a900c9
:101ed000c622a8008820a9009820a9009800a9007f
:101ee0002126200091407800c0cfb30000c06000e0
:101ef0000014a00062e2b70062c2bf00c041b3009c
:101f000062e2b7006382a9006362a9006342a9008c
:101f10006322a9006302a80062c2a90062a2a8000d
:101f200065e2a90060c2a90061e2a800d042a80051
:101f3000ca42a800d022a900ca62a9000080fa0003
:101f4000000006000400fa00000f78001e00e00008
:101f500003003a00600020001007980004003700da
:101f60001e0078000000d0000080e90010079800f3
:101f7000d042a900d022a80000000000000000000c
:101f8000d022a900beff070060c2bf000080fb0096
:101f90000000d1000080fb00610060000000e00054
:101fa0000200320000000000f7ff37009e007800ba
:101fb000000120000088b9004013880060c2bf0003
:101fc0000080fb00610060000000e00002003a00b9
:101fd00000000000f9ff37001e009000629f200003
:101fe00082004000401380008048780060c2bf003b
:101ff0000080fb000000d1000080fb006100600059
:102000000000e0000200320000000000f7ff37008f
:102010000000eb004013880060c2bf000080fb009e
:10202000610060000000e00002003a0000000000d3
:10203000f9ff37001e009000729f200082004000d0
:10204000401380008048780000000000d042a800c3
:1020500060c2a9000080fa00000006000400fa0037
:10206000000f78001e00e00003003a00e0002000ae
:1020700010079800040037001e0078000000d00010
:102080006600400010079800ca42a900ca62a80072
:102090000000000000000000ca62a90078ff0700ed
:1020a00060c2bf000080fb000000d1000080fb0088
:1020b000610060000000e00002003200000000004b
:1020c000f7ff37009e007800000120000088b9006b
:1020d0004013880060c2bf000080fb006100600008
:1020e0000000e00002003a0000000000f9ff3700a5
:1020f0001e009000629f200082004000401380007c
:102100008048780060c2bf000080fb000000d10062
:102110000080fb00610060000000e000020032006f
:1021200000000000f7ff37000000eb0040138800bc
:1021300060c2bf000080fb00610060000000e000a2
:1021400002003a0000000000f9ff37001e00900076
:10215000729f200082004000401380008048780079
:1021600000000000ca42a80060c2a9000080fa0076
:10217000000006000000fa00e462a900e442a900a1
:10218000e662a800e642a90000000000000000008e
:10219000000000000000000000000000000000003f
:1021a000e642a8000000000000000000000000005f
:1021b000000000000000000000000000e662a9002e
:1021c000000000000000000000000000000000000f
:1021d0000000000000000000e642a900000000002e
:1021e00000000000000000000000000000000000ef
:1021f000000000000000000000000000e642a8000f
:1022000000000000000000000000000000000000ce
:102210000000000000000000e662a80000000000ce
:1022200000000000000000000000000000000000ae
:1022300000000000e642a9000000000000000000cd
:10224000000000000000000000000000000000008e
:102250000080fa00000006000200fa00e462a90013
:10226000e442a900e662a800e642a90000000000de
:10227000000000000000000000000000000000005e
:10228000000000000040eb00004f780080c0b30069
:102290009e4f10000e003e00e642a8000000000025
:1022a000000000000000000000000000000000002e
:1022b000e642a9000000000000000000000000004d
:1022c00000000000000000001e4fe800efff370094
:1022d000a8ff07000080fa00000006000400fa00d2
:1022e000004f78000040eb0020479800e462a9000e
:1022f000e442a9000000000000000000000000000f
:10230000000000000000000000c8b3001047980063
:102310001e4090000004e0001b0032001e409000b0
:102320001e4060000004e00002003200e662a800e7
:1023300001003700e662a900000000000000000074
:10234000000000000000000000000000000000008d
:102350000000000000000000e642a80000000000ad
:10236000000000000000000000000000000000006d
:10237000e642a9001e4090000080fb000000d10052
:1023800010479800e2ff3700e662a800e462a80068
:10239000000000000000000000000000000000003d
:1023a00000000000e642a80000000000000000005d
:1023b000000000000000000000000000e6c2bf00b6
:1023c0000080fb004300de000080fb006100600035
:1023d00020479800e642a90000000000000000002d
:1023e0000000000000000000000000002e409000ef
:1023f0000000fb000080fa00000006000600fa0062
:10240000004f78000040eb0020479800e462a900ec
:10241000e442a900e662a800e462a800000000000f
:1024200000000000000000000000000000000000ac
:1024300000c8b300104798001e4090000004e00060
:102440001c0032000000000000000000000000003e
:102450000000000000000000e642a80000000000ac
:10246000000000000000000000000000000000006c
:10247000e6c2bf000080fb004300de000080fb00de
:10248000610060000000e000040032002e40900077
:102490009e4090000140700020479800e642a9004d
:1024a0001e4090000080fb000000d1001047980003
:1024b000e1ff3700e462a900000000000000000016
:1024c0000000000000000000000000000000eb0021
:1024d000200798001e04e00002003a0011002000ce
:1024e00021079800ce40900061c060004301dd00ec
:1024f000612e20009140780070cfb30000c06000d2
:1025000002407000e6e2b700e642a80000000000ca
:1025100000000000000000000000000000000000bb
:10252000000000000000000000000000e642a900da
:10253000e662a800000000000000000000000000ab
:1025400000000000000000002e4090000000fb0092
:102550000080fa00000006000200fa000040eb00d4
:10256000004f7800e462a900e442a90000000000e6
:10257000000000000000000000000000000000005b
:1025800035ff0700e0c1b30054ff07001e4f4000b5
:102590001e00fb000080fa00000006000600fa00a2
:1025a000881f7800000f7800110798000040eb00aa
:1025b00040479800effe070070c0b30047ff0700d8
:1025c000404798001e04780010c0b3008bff07003e
:1025d000004c78001e0490000040eb0087ff0700cd
:1025e000004c78004e4090000000fb004f04780043
:1025f0000080fa00000006000400fa00000f7800d6
:102600000040eb0020479800dafe070060c0b300ee
:1026100032ff0700804078002e40900001404000cb
:10262000204798001e007800104078002bff07001c
:10263000804078002e4090000140400020479800e4
:102640002e4090000000fb000080fa000000060011
:102650000e00fa00881f7800000f7800110798001c
:10266000424798000000eb0040079800c1fe0700b9
:102670004e4090000080fb00600798006e009000c4
:102680000000e000040032006e009000e10f5000f6
:10269000080032000d00370030c0b3000fff070004
:1026a0008000fb004e0090000100400040079800b1
:1026b0000600370050c0b30008ff07008000fb0091
:1026c0004e00900001004000400798000000eb0021
:1026d000500798005e009000e40f400056003e0056
:1026e00000000000000000000000000000000000ea
:1026f00000000000000000000000000000000000da
:1027000000000000000000000000000000000000c9
:1027100000000000000000000000000000000000b9
:1027200000000000000000000000000000000000a9
:102730000000000000000000000000000000000099
:102740000000000000000000000000000000000089
:102750000000000000000000000000000000000079
:102760000000000000000000000000000000000069
:102770000000000000000000000000000000000059
:102780000000000000000000000000000000000049
:102790000000000000000000000000000000000039
:1027a0000000000000000000000000000000000029
:1027b0000000000000000000000000000000000019
:1027c0000000000000000000000000000000000009
:1027d00000000000000000000000000000000000f9
:1027e00000000000000000000000000000000000e9
:1027f00000000000000000000000000000000000d9
:10280000000000000000000000000000e6c2bf0061
:102810000080fb004300de000080fb0061006000e0
:102820000000e000040032005e0090000000e800bc
:1028300050079800a7ff3700e6c2bf000080fb00ea
:102840004300de000080fb00610060000000e0004b
:10285000030032004e0090000000e800400798009e
:102860001e04e80010c0b300e4fe0700004c78002e
:1028700010c0b300e1fe0700504798001e04780026
:1028800010c0b300ddfe0700004c780010c0b3009c
:10289000dafe0700604798001e0490000040eb003d
:1028a000d6fe0700004c78000e4890000000fb00a8
:1028b0004f0478000080fa00000006002c00fa00a7
:1028c000889fbe00000f78001107980000002000cc
:1028d00001082c00200798003107980040352e0091
:1028e00051d223004007980051079800207a2e000b
:1028f000b1632b006007980071079800a0702d004d
:1029000031c22300000f9800110f9800c05a2c000c
:10291000718a2300200f9800310f98001e00780064
:102920001001be00420f9800530f98001e00900047
:102930001001be00620f9800730f9800a2702d0066
:1029400033c223006e089000fe08900017f70700be
:10295000020020000322240069f7070040179800b6
:10296000511798004e099000de0990006e0090000b
:10297000fe0090000df707004e099000de09900060
:102980000af707000004be004e099000de0990001f
:102990004e009000de00900004f707000001be002a
:1029a0000800be0057f707002e019000be019000fe
:1029b00054f7070000179800111798000200200034
:1029c000831c24004e109000de1090004cf707008e
:1029d0000004be004e099000de0990002e08900011
:1029e000be089000f1f607000e0990009e099000c5
:1029f00044f707000001be000800be00ebf6070028
:102a00000e1190009e1190003ef7070020179800cd
:102a10003117980002002000832c24002e10900013
:102a2000be10900094f707000000e000040034009e
:102a300000002000812c24002017980031179800f6
:102a4000d2cc2c00c3dc23002e109000be109000ce
:102a50008bf707000000e00004003d00d0cc2c0004
:102a6000c1dc230020179800311798001e00900049
:102a70004e119000de1190000288be001e0078000a
:102a80002e119000be1190000288be004f04be00bf
:082a90000080fa0000000600be
:020000040000fa
:0200000401f009
:04000000cf0000002d
:020000040000fa
:0200000401f009
:04000400cf00000029
:020000040000fa
:0200000401f009
:0400080007000000ed
:020000040000fa
:0200000401f009
:04000c00a20000004e
:020000040000fa
:0200000401f009
:0400100046000000a6
:020000040000fa
:0200000401f009
:04001400df00000009
:020000040000fa
:0200000401f009
:04001800e7000000fd
:020000040000fa
:100008007e1500007e1500007e1500007e1500009c
:100018007e1500007e1500007e1500007e1500008c
:100028007e1500007e1500007e1500007e1500007c
:100038007e1500007e1500007e1500007e1500006c
:100048007e1500007e1500007e150000a606000043
:100058007e1500007e1500007e1500007e1500004c
:100068007e1500007e1500007e1500007e1500003c
:100078007e1500007e1500007e1500007e1500002c
:100088007e1500007e1500007e1500007e1500001c
:100098007e1500007e150000fa0700007e1500009e
:1000a8007e1500007e1500007e1500007e150000fc
:1000b8007e1500007e1500007e1500007e150000ec
:1000c8007e1500007e1500007e1500007e150000dc
:1000d8007e1500007e1500007e150000b6050000a4
:1000e8007e1500007e1500007e1500007e150000bc
:1000f8007e1500007e1500007e1500007e150000ac
:100108007e1500007e1500007e1500007e1500009b
:100118007e1500007e1500007e1500007e1500008b
:100128007e1500007e1500007e1500007e1500007b
:100138007e1500007e1500007e1500007e1500006b
:100148007e1500007e1500007e1500007e1500005b
:100158007e1500007e1500007e1500007e1500004b
:100168007e1500007e1500007e1500007e1500003b
:100178007e1500007e1500007e1500007e1500002b
:100188007e1500007e1500007e1500007e1500001b
:100198007e1500007e1500007e1500007e1500000b
:1001a8007e1500007e1500007e1500007e150000fb
:1001b8007e1500007e1500007e1500007e150000eb
:1001c8007e1500007e1500007e1500007e150000db
:1001d8007e1500007e1500007e1500007e150000cb
:1001e8007e1500007e1500007e1500007e150000bb
:0801f8007e1500007e150000d9
:020000040000fa
:100208007e1500007e1500007e1500007e1500009a
:100218007e1500007e1500007e1500007e1500008a
:100228007e1500007e1500007e1500007e1500007a
:100238007e1500007e1500007e1500007e1500006a
:100248007e1500007e1500007e150000a606000041
:100258007e1500007e1500007e1500007e1500004a
:100268007e1500007e1500007e1500007e1500003a
:100278007e1500007e1500007e1500007e1500002a
:100288007e1500007e1500007e1500007e1500001a
:100298007e1500007e150000fa0700007e1500009c
:1002a8007e1500007e1500007e1500007e150000fa
:1002b8007e1500007e1500007e1500007e150000ea
:1002c8007e1500007e1500007e1500007e150000da
:1002d8007e1500007e1500007e150000b6050000a2
:1002e8007e1500007e1500007e1500007e150000ba
:1002f8007e1500007e1500007e1500007e150000aa
:100308007e1500007e1500007e1500007e15000099
:100318007e1500007e1500007e1500007e15000089
:100328007e1500007e1500007e1500007e15000079
:100338007e1500007e1500007e1500007e15000069
:100348007e1500007e1500007e1500007e15000059
:100358007e1500007e1500007e1500007e15000049
:100368007e1500007e1500007e1500007e15000039
:100378007e1500007e1500007e1500007e15000029
:100388007e1500007e1500007e1500007e15000019
:100398007e1500007e1500007e1500007e15000009
:1003a8007e1500007e1500007e1500007e150000f9
:1003b8007e1500007e1500007e1500007e150000e9
:1003c8007e1500007e1500007e1500007e150000d9
:1003d8007e1500007e1500007e1500007e150000c9
:1003e8007e1500007e1500007e1500007e150000b9
:0803f8007e1500007e150000d7
:020000040000fa
:0c2a98007265000073650000740000000f
:020000040000fa
:102aa400660a00002c000000020000002200000062
:102ab40000620000000000000000000000000000b0
:102ac40000000000000000000000000000016c0095
:102ad40000000000000000000000000000000000f2
:102ae4000000000000000000000800006602000072
:082af4000000000000000000da
:020000040000fa
:042afc000000fe00d8
:00000001FF
